{
  "_format": "hh-sol-artifact-1",
  "contractName": "QualityControl",
  "sourceName": "contracts/QualityControl.sol",
  "abi": [
    {
      "inputs": [
        {
          "internalType": "address",
          "name": "_roleManager",
          "type": "address"
        }
      ],
      "stateMutability": "nonpayable",
      "type": "constructor"
    },
    {
      "anonymous": false,
      "inputs": [
        {
          "indexed": true,
          "internalType": "uint256",
          "name": "productId",
          "type": "uint256"
        },
        {
          "indexed": true,
          "internalType": "address",
          "name": "inspector",
          "type": "address"
        },
        {
          "indexed": false,
          "internalType": "bool",
          "name": "passed",
          "type": "bool"
        }
      ],
      "name": "QualityReportAdded",
      "type": "event"
    },
    {
      "inputs": [
        {
          "internalType": "uint256",
          "name": "productId",
          "type": "uint256"
        },
        {
          "internalType": "bool",
          "name": "passed",
          "type": "bool"
        },
        {
          "internalType": "string",
          "name": "comments",
          "type": "string"
        }
      ],
      "name": "addReport",
      "outputs": [],
      "stateMutability": "nonpayable",
      "type": "function"
    },
    {
      "inputs": [],
      "name": "getPassRate",
      "outputs": [
        {
          "internalType": "uint256",
          "name": "",
          "type": "uint256"
        }
      ],
      "stateMutability": "view",
      "type": "function"
    },
    {
      "inputs": [
        {
          "internalType": "uint256",
          "name": "productId",
          "type": "uint256"
        }
      ],
      "name": "getReportCount",
      "outputs": [
        {
          "internalType": "uint256",
          "name": "",
          "type": "uint256"
        }
      ],
      "stateMutability": "view",
      "type": "function"
    },
    {
      "inputs": [
        {
          "internalType": "uint256",
          "name": "productId",
          "type": "uint256"
        }
      ],
      "name": "getReports",
      "outputs": [
        {
          "components": [
            {
              "internalType": "uint256",
              "name": "productId",
              "type": "uint256"
            },
            {
              "internalType": "address",
              "name": "inspector",
              "type": "address"
            },
            {
              "internalType": "bool",
              "name": "passed",
              "type": "bool"
            },
            {
              "internalType": "string",
              "name": "comments",
              "type": "string"
            },
            {
              "internalType": "uint256",
              "name": "timestamp",
              "type": "uint256"
            }
          ],
          "internalType": "struct QualityControl.QualityReport[]",
          "name": "",
          "type": "tuple[]"
        }
      ],
      "stateMutability": "view",
      "type": "function"
    },
    {
      "inputs": [],
      "name": "passedReports",
      "outputs": [
        {
          "internalType": "uint256",
          "name": "",
          "type": "uint256"
        }
      ],
      "stateMutability": "view",
      "type": "function"
    },
    {
      "inputs": [
        {
          "internalType": "uint256",
          "name": "",
          "type": "uint256"
        },
        {
          "internalType": "uint256",
          "name": "",
          "type": "uint256"
        }
      ],
      "name": "productReports",
      "outputs": [
        {
          "internalType": "uint256",
          "name": "productId",
          "type": "uint256"
        },
        {
          "internalType": "address",
          "name": "inspector",
          "type": "address"
        },
        {
          "internalType": "bool",
          "name": "passed",
          "type": "bool"
        },
        {
          "internalType": "string",
          "name": "comments",
          "type": "string"
        },
        {
          "internalType": "uint256",
          "name": "timestamp",
          "type": "uint256"
        }
      ],
      "stateMutability": "view",
      "type": "function"
    },
    {
      "inputs": [],
      "name": "roleManager",
      "outputs": [
        {
          "internalType": "contract RoleManager",
          "name": "",
          "type": "address"
        }
      ],
      "stateMutability": "view",
      "type": "function"
    },
    {
      "inputs": [],
      "name": "totalReports",
      "outputs": [
        {
          "internalType": "uint256",
          "name": "",
          "type": "uint256"
        }
      ],
      "stateMutability": "view",
      "type": "function"
    }
  ],
  "bytecode": "0x608060405234801561001057600080fd5b50604051610b22380380610b2283398101604081905261002f91610054565b600080546001600160a01b0319166001600160a01b0392909216919091179055610084565b60006020828403121561006657600080fd5b81516001600160a01b038116811461007d57600080fd5b9392505050565b610a8f806100936000396000f3fe608060405234801561001057600080fd5b50600436106100875760003560e01c80636ccdb7781161005b5780636ccdb778146101085780636e25199e14610128578063b00eba4f1461014c578063c5f25fd01461015557600080fd5b8062435da51461008c57806305666d7b146100bc5780630d7f1622146100ea5780634235c26f146100f3575b600080fd5b60005461009f906001600160a01b031681565b6040516001600160a01b0390911681526020015b60405180910390f35b6100dc6100ca366004610607565b60009081526001602052604090205490565b6040519081526020016100b3565b6100dc60035481565b610106610101366004610647565b61015d565b005b61011b610116366004610607565b6103ac565b6040516100b3919061075a565b61013b6101363660046107ff565b6104ee565b6040516100b3959493929190610821565b6100dc60025481565b6100dc6105d5565b6000546040805163271061b160e11b815290516001600160a01b03909216916391d14854918391634e20c362916004808201926020929091908290030181865afa1580156101af573d6000803e3d6000fd5b505050506040513d601f19601f820116820180604052508101906101d39190610865565b6040516001600160e01b031960e084901b1681526004810191909152336024820152604401602060405180830381865afa158015610215573d6000803e3d6000fd5b505050506040513d601f19601f82011682018060405250810190610239919061087e565b6102995760405162461bcd60e51b815260206004820152602760248201527f4f6e6c79207175616c69747920696e73706563746f72732063616e20616464206044820152667265706f72747360c81b606482015260840160405180910390fd5b6000838152600160208181526040808420815160a0810183528881523381850190815288151593820193845260608201888152426080840152835480880185559388529490962081516004909302019182559451938101805492511515600160a01b026001600160a81b03199093166001600160a01b0395909516949094179190911790925551600282019061032f908261092b565b50608091909101516003909101556002805490600061034d83610a01565b9190505550811561036e576003805490600061036883610a01565b91905055505b6040518215158152339084907fd443058a26709ec5f3596c5c180babc9eaaf37dd6d6b577e3770dc9b8be8f93d9060200160405180910390a3505050565b606060016000838152602001908152602001600020805480602002602001604051908101604052809291908181526020016000905b828210156104e35760008481526020908190206040805160a081018252600486029092018054835260018101546001600160a01b03811694840194909452600160a01b90930460ff16151590820152600282018054919291606084019190610448906108a2565b80601f0160208091040260200160405190810160405280929190818152602001828054610474906108a2565b80156104c15780601f10610496576101008083540402835291602001916104c1565b820191906000526020600020905b8154815290600101906020018083116104a457829003601f168201915b50505050508152602001600382015481525050815260200190600101906103e1565b505050509050919050565b6001602052816000526040600020818154811061050a57600080fd5b60009182526020909120600490910201805460018201546002830180549295506001600160a01b0382169450600160a01b90910460ff16929161054c906108a2565b80601f0160208091040260200160405190810160405280929190818152602001828054610578906108a2565b80156105c55780601f1061059a576101008083540402835291602001916105c5565b820191906000526020600020905b8154815290600101906020018083116105a857829003601f168201915b5050505050908060030154905085565b60006002546000036105e75750600090565b6002546003546105f8906064610a1a565b6106029190610a37565b905090565b60006020828403121561061957600080fd5b5035919050565b801515811461062e57600080fd5b50565b634e487b7160e01b600052604160045260246000fd5b60008060006060848603121561065c57600080fd5b83359250602084013561066e81610620565b9150604084013567ffffffffffffffff8082111561068b57600080fd5b818601915086601f83011261069f57600080fd5b8135818111156106b1576106b1610631565b604051601f8201601f19908116603f011681019083821181831017156106d9576106d9610631565b816040528281528960208487010111156106f257600080fd5b8260208601602083013760006020848301015280955050505050509250925092565b6000815180845260005b8181101561073a5760208185018101518683018201520161071e565b506000602082860101526020601f19601f83011685010191505092915050565b60006020808301818452808551808352604092508286019150828160051b87010184880160005b838110156107f157888303603f19018552815180518452878101516001600160a01b0316888501528681015115158785015260608082015160a082870181905291906107cf83880182610714565b6080948501519790940196909652505094870194925090860190600101610781565b509098975050505050505050565b6000806040838503121561081257600080fd5b50508035926020909101359150565b8581526001600160a01b0385166020820152831515604082015260a06060820181905260009061085390830185610714565b90508260808301529695505050505050565b60006020828403121561087757600080fd5b5051919050565b60006020828403121561089057600080fd5b815161089b81610620565b9392505050565b600181811c908216806108b657607f821691505b6020821081036108d657634e487b7160e01b600052602260045260246000fd5b50919050565b601f82111561092657600081815260208120601f850160051c810160208610156109035750805b601f850160051c820191505b818110156109225782815560010161090f565b5050505b505050565b815167ffffffffffffffff81111561094557610945610631565b6109598161095384546108a2565b846108dc565b602080601f83116001811461098e57600084156109765750858301515b600019600386901b1c1916600185901b178555610922565b600085815260208120601f198616915b828110156109bd5788860151825594840194600190910190840161099e565b50858210156109db5787850151600019600388901b60f8161c191681555b5050505050600190811b01905550565b634e487b7160e01b600052601160045260246000fd5b600060018201610a1357610a136109eb565b5060010190565b8082028115828204841417610a3157610a316109eb565b92915050565b600082610a5457634e487b7160e01b600052601260045260246000fd5b50049056fea2646970667358221220bfda9795ee3b9b43c272df732ede9b1345fc66f4d77ff64347da03240219d58e64736f6c63430008130033",
  "linkReferences": {},
  "deployedLinkReferences": {}
}