{
  "_format": "hh-sol-artifact-1",
  "contractName": "SupplyChain",
  "sourceName": "contracts/SupplyChain.sol",
  "abi": [
    {
      "inputs": [
        {
          "internalType": "address",
          "name": "_roleManager",
          "type": "address"
        }
      ],
      "stateMutability": "nonpayable",
      "type": "constructor"
    },
    {
      "anonymous": false,
      "inputs": [
        {
          "indexed": true,
          "internalType": "uint256",
          "name": "productId",
          "type": "uint256"
        },
        {
          "indexed": false,
          "internalType": "enum SupplyChain.Stage",
          "name": "stage",
          "type": "uint8"
        },
        {
          "indexed": true,
          "internalType": "address",
          "name": "actor",
          "type": "address"
        }
      ],
      "name": "StepAdded",
      "type": "event"
    },
    {
      "inputs": [
        {
          "internalType": "uint256",
          "name": "productId",
          "type": "uint256"
        },
        {
          "internalType": "enum SupplyChain.Stage",
          "name": "stage",
          "type": "uint8"
        },
        {
          "internalType": "string",
          "name": "location",
          "type": "string"
        }
      ],
      "name": "addStep",
      "outputs": [],
      "stateMutability": "nonpayable",
      "type": "function"
    },
    {
      "inputs": [
        {
          "internalType": "uint256",
          "name": "productId",
          "type": "uint256"
        }
      ],
      "name": "getStepCount",
      "outputs": [
        {
          "internalType": "uint256",
          "name": "",
          "type": "uint256"
        }
      ],
      "stateMutability": "view",
      "type": "function"
    },
    {
      "inputs": [
        {
          "internalType": "uint256",
          "name": "productId",
          "type": "uint256"
        }
      ],
      "name": "getSteps",
      "outputs": [
        {
          "components": [
            {
              "internalType": "address",
              "name": "actor",
              "type": "address"
            },
            {
              "internalType": "enum SupplyChain.Stage",
              "name": "stage",
              "type": "uint8"
            },
            {
              "internalType": "string",
              "name": "location",
              "type": "string"
            },
            {
              "internalType": "uint256",
              "name": "timestamp",
              "type": "uint256"
            }
          ],
          "internalType": "struct SupplyChain.SupplyChainStep[]",
          "name": "",
          "type": "tuple[]"
        }
      ],
      "stateMutability": "view",
      "type": "function"
    },
    {
      "inputs": [
        {
          "internalType": "uint256",
          "name": "",
          "type": "uint256"
        },
        {
          "internalType": "uint256",
          "name": "",
          "type": "uint256"
        }
      ],
      "name": "productSteps",
      "outputs": [
        {
          "internalType": "address",
          "name": "actor",
          "type": "address"
        },
        {
          "internalType": "enum SupplyChain.Stage",
          "name": "stage",
          "type": "uint8"
        },
        {
          "internalType": "string",
          "name": "location",
          "type": "string"
        },
        {
          "internalType": "uint256",
          "name": "timestamp",
          "type": "uint256"
        }
      ],
      "stateMutability": "view",
      "type": "function"
    },
    {
      "inputs": [],
      "name": "roleManager",
      "outputs": [
        {
          "internalType": "contract RoleManager",
          "name": "",
          "type": "address"
        }
      ],
      "stateMutability": "view",
      "type": "function"
    }
  ],
  "bytecode": "0x608060405234801561001057600080fd5b50604051610c06380380610c0683398101604081905261002f91610054565b600080546001600160a01b0319166001600160a01b0392909216919091179055610084565b60006020828403121561006657600080fd5b81516001600160a01b038116811461007d57600080fd5b9392505050565b610b73806100936000396000f3fe608060405234801561001057600080fd5b50600436106100565760003560e01c8062435da51461005b5780635979c8371461008b57806391ce46bc146100ae578063dc79d3ca146100ce578063fcb5e7d7146100e3575b600080fd5b60005461006e906001600160a01b031681565b6040516001600160a01b0390911681526020015b60405180910390f35b61009e61009936600461071f565b610111565b60405161008294939291906107bf565b6100c16100bc3660046107ff565b6101f1565b6040516100829190610818565b6100e16100dc3660046108cd565b610347565b005b6101036100f13660046107ff565b60009081526001602052604090205490565b604051908152602001610082565b6001602052816000526040600020818154811061012d57600080fd5b6000918252602090912060039091020180546001820180546001600160a01b0383169550600160a01b90920460ff169350906101689061099e565b80601f01602080910402602001604051908101604052809291908181526020018280546101949061099e565b80156101e15780601f106101b6576101008083540402835291602001916101e1565b820191906000526020600020905b8154815290600101906020018083116101c457829003601f168201915b5050505050908060020154905084565b606060016000838152602001908152602001600020805480602002602001604051908101604052809291908181526020016000905b8282101561033c5760008481526020908190206040805160808101909152600385810290920180546001600160a01b03811683529193909290840191600160a01b900460ff169081111561027c5761027c610741565b600381111561028d5761028d610741565b81526020016001820180546102a19061099e565b80601f01602080910402602001604051908101604052809291908181526020018280546102cd9061099e565b801561031a5780601f106102ef5761010080835404028352916020019161031a565b820191906000526020600020905b8154815290600101906020018083116102fd57829003601f168201915b5050505050815260200160028201548152505081526020019060010190610226565b505050509050919050565b60008083600381111561035c5761035c610741565b036103dd5760008054906101000a90046001600160a01b03166001600160a01b031663965288b06040518163ffffffff1660e01b8152600401602060405180830381865afa1580156103b2573d6000803e3d6000fd5b505050506040513d601f19601f820116820180604052508101906103d691906109d8565b9050610542565b60018360038111156103f1576103f1610741565b036104475760008054906101000a90046001600160a01b03166001600160a01b031663f0bd87cc6040518163ffffffff1660e01b8152600401602060405180830381865afa1580156103b2573d6000803e3d6000fd5b600283600381111561045b5761045b610741565b036104b15760008054906101000a90046001600160a01b03166001600160a01b031663f0bd87cc6040518163ffffffff1660e01b8152600401602060405180830381865afa1580156103b2573d6000803e3d6000fd5b60038360038111156104c5576104c5610741565b036105425760008054906101000a90046001600160a01b03166001600160a01b0316632115e7bf6040518163ffffffff1660e01b8152600401602060405180830381865afa15801561051b573d6000803e3d6000fd5b505050506040513d601f19601f8201168201806040525081019061053f91906109d8565b90505b600054604051632474521560e21b8152600481018390523360248201526001600160a01b03909116906391d1485490604401602060405180830381865afa158015610591573d6000803e3d6000fd5b505050506040513d601f19601f820116820180604052508101906105b591906109f1565b6105f95760405162461bcd60e51b8152602060048201526011602482015270556e617574686f72697a656420726f6c6560781b604482015260640160405180910390fd5b600160008581526020019081526020016000206040518060800160405280336001600160a01b0316815260200185600381111561063857610638610741565b815260208082018690524260409092019190915282546001810184556000938452928190208251600394850290910180546001600160a01b039092166001600160a01b031983168117825592840151939490939284926001600160a81b0319161790600160a01b9084908111156106b1576106b1610741565b0217905550604082015160018201906106ca9082610a69565b50606082015181600201555050336001600160a01b0316847f449c00a51ae619d2044ea13274b2ab87358fb02468a485f297dbc00120671da2856040516107119190610b29565b60405180910390a350505050565b6000806040838503121561073257600080fd5b50508035926020909101359150565b634e487b7160e01b600052602160045260246000fd5b6004811061077557634e487b7160e01b600052602160045260246000fd5b9052565b6000815180845260005b8181101561079f57602081850181015186830182015201610783565b506000602082860101526020601f19601f83011685010191505092915050565b6001600160a01b03851681526107d86020820185610757565b6080604082015260006107ee6080830185610779565b905082606083015295945050505050565b60006020828403121561081157600080fd5b5035919050565b60006020808301818452808551808352604092508286019150828160051b87010184880160005b838110156108a957888303603f19018552815180516001600160a01b03168452878101516080906108728a870182610757565b5087820151818987015261088882870182610779565b6060938401519690930195909552509487019492509086019060010161083f565b509098975050505050505050565b634e487b7160e01b600052604160045260246000fd5b6000806000606084860312156108e257600080fd5b833592506020840135600481106108f857600080fd5b9150604084013567ffffffffffffffff8082111561091557600080fd5b818601915086601f83011261092957600080fd5b81358181111561093b5761093b6108b7565b604051601f8201601f19908116603f01168101908382118183101715610963576109636108b7565b8160405282815289602084870101111561097c57600080fd5b8260208601602083013760006020848301015280955050505050509250925092565b600181811c908216806109b257607f821691505b6020821081036109d257634e487b7160e01b600052602260045260246000fd5b50919050565b6000602082840312156109ea57600080fd5b5051919050565b600060208284031215610a0357600080fd5b81518015158114610a1357600080fd5b9392505050565b601f821115610a6457600081815260208120601f850160051c81016020861015610a415750805b601f850160051c820191505b81811015610a6057828155600101610a4d565b5050505b505050565b815167ffffffffffffffff811115610a8357610a836108b7565b610a9781610a91845461099e565b84610a1a565b602080601f831160018114610acc5760008415610ab45750858301515b600019600386901b1c1916600185901b178555610a60565b600085815260208120601f198616915b82811015610afb57888601518255948401946001909101908401610adc565b5085821015610b195787850151600019600388901b60f8161c191681555b5050505050600190811b01905550565b60208101610b378284610757565b9291505056fea26469706673582212203619827d00f19bec031e412e4c3b0538a48110e85736c8f3daff7186d8812a6264736f6c63430008130033",
  "linkReferences": {},
  "deployedLinkReferences": {}
}