{
  "_format": "hh-sol-artifact-1",
  "contractName": "ProductRegistry",
  "sourceName": "contracts/ProductRegistry.sol",
  "abi": [
    {
      "inputs": [
        {
          "internalType": "address",
          "name": "_roleManager",
          "type": "address"
        }
      ],
      "stateMutability": "nonpayable",
      "type": "constructor"
    },
    {
      "anonymous": false,
      "inputs": [
        {
          "indexed": true,
          "internalType": "uint256",
          "name": "productId",
          "type": "uint256"
        },
        {
          "indexed": false,
          "internalType": "string",
          "name": "name",
          "type": "string"
        },
        {
          "indexed": true,
          "internalType": "address",
          "name": "manufacturer",
          "type": "address"
        }
      ],
      "name": "ProductRegistered",
      "type": "event"
    },
    {
      "inputs": [],
      "name": "getAllProductIds",
      "outputs": [
        {
          "internalType": "uint256[]",
          "name": "",
          "type": "uint256[]"
        }
      ],
      "stateMutability": "view",
      "type": "function"
    },
    {
      "inputs": [
        {
          "internalType": "uint256",
          "name": "productId",
          "type": "uint256"
        }
      ],
      "name": "getProduct",
      "outputs": [
        {
          "components": [
            {
              "internalType": "uint256",
              "name": "id",
              "type": "uint256"
            },
            {
              "internalType": "string",
              "name": "name",
              "type": "string"
            },
            {
              "internalType": "string",
              "name": "category",
              "type": "string"
            },
            {
              "internalType": "address",
              "name": "manufacturer",
              "type": "address"
            },
            {
              "internalType": "uint256",
              "name": "timestamp",
              "type": "uint256"
            },
            {
              "internalType": "bool",
              "name": "exists",
              "type": "bool"
            }
          ],
          "internalType": "struct ProductRegistry.Product",
          "name": "",
          "type": "tuple"
        }
      ],
      "stateMutability": "view",
      "type": "function"
    },
    {
      "inputs": [],
      "name": "getProductCount",
      "outputs": [
        {
          "internalType": "uint256",
          "name": "",
          "type": "uint256"
        }
      ],
      "stateMutability": "view",
      "type": "function"
    },
    {
      "inputs": [
        {
          "internalType": "uint256",
          "name": "",
          "type": "uint256"
        }
      ],
      "name": "productIds",
      "outputs": [
        {
          "internalType": "uint256",
          "name": "",
          "type": "uint256"
        }
      ],
      "stateMutability": "view",
      "type": "function"
    },
    {
      "inputs": [
        {
          "internalType": "uint256",
          "name": "",
          "type": "uint256"
        }
      ],
      "name": "products",
      "outputs": [
        {
          "internalType": "uint256",
          "name": "id",
          "type": "uint256"
        },
        {
          "internalType": "string",
          "name": "name",
          "type": "string"
        },
        {
          "internalType": "string",
          "name": "category",
          "type": "string"
        },
        {
          "internalType": "address",
          "name": "manufacturer",
          "type": "address"
        },
        {
          "internalType": "uint256",
          "name": "timestamp",
          "type": "uint256"
        },
        {
          "internalType": "bool",
          "name": "exists",
          "type": "bool"
        }
      ],
      "stateMutability": "view",
      "type": "function"
    },
    {
      "inputs": [
        {
          "internalType": "string",
          "name": "name",
          "type": "string"
        },
        {
          "internalType": "string",
          "name": "category",
          "type": "string"
        }
      ],
      "name": "registerProduct",
      "outputs": [
        {
          "internalType": "uint256",
          "name": "",
          "type": "uint256"
        }
      ],
      "stateMutability": "nonpayable",
      "type": "function"
    },
    {
      "inputs": [],
      "name": "roleManager",
      "outputs": [
        {
          "internalType": "contract RoleManager",
          "name": "",
          "type": "address"
        }
      ],
      "stateMutability": "view",
      "type": "function"
    }
  ],
  "bytecode": "0x608060405234801561001057600080fd5b50604051610cb5380380610cb583398101604081905261002f91610054565b600080546001600160a01b0319166001600160a01b0392909216919091179055610084565b60006020828403121561006657600080fd5b81516001600160a01b038116811461007d57600080fd5b9392505050565b610c22806100936000396000f3fe608060405234801561001057600080fd5b506004361061007c5760003560e01c80637acc0b201161005b5780637acc0b20146100d85780638fbd0dcf146100fd578063b9db15b414610110578063cb51bba91461013057600080fd5b8062435da5146100815780634a348da9146100b1578063663c01af146100c3575b600080fd5b600054610094906001600160a01b031681565b6040516001600160a01b0390911681526020015b60405180910390f35b6001545b6040519081526020016100a8565b6100cb610143565b6040516100a891906107b0565b6100eb6100e63660046107f4565b61019b565b6040516100a896959493929190610853565b6100b561010b36600461094b565b6102ef565b61012361011e3660046107f4565b610572565b6040516100a891906109af565b6100b561013e3660046107f4565b61078f565b6060600380548060200260200160405190810160405280929190818152602001828054801561019157602002820191906000526020600020905b81548152602001906001019080831161017d575b5050505050905090565b600260205260009081526040902080546001820180549192916101bd90610a27565b80601f01602080910402602001604051908101604052809291908181526020018280546101e990610a27565b80156102365780601f1061020b57610100808354040283529160200191610236565b820191906000526020600020905b81548152906001019060200180831161021957829003601f168201915b50505050509080600201805461024b90610a27565b80601f016020809104026020016040519081016040528092919081815260200182805461027790610a27565b80156102c45780601f10610299576101008083540402835291602001916102c4565b820191906000526020600020905b8154815290600101906020018083116102a757829003601f168201915b505050506003830154600484015460059094015492936001600160a01b039091169290915060ff1686565b6000805460408051630965288b60e41b815290516001600160a01b03909216916391d1485491839163965288b0916004808201926020929091908290030181865afa158015610342573d6000803e3d6000fd5b505050506040513d601f19601f820116820180604052508101906103669190610a61565b6040516001600160e01b031960e084901b1681526004810191909152336024820152604401602060405180830381865afa1580156103a8573d6000803e3d6000fd5b505050506040513d601f19601f820116820180604052508101906103cc9190610a7a565b61042e5760405162461bcd60e51b815260206004820152602860248201527f4f6e6c79206d616e756661637475726572732063616e2072656769737465722060448201526770726f647563747360c01b60648201526084015b60405180910390fd5b6001805490600061043e83610aa3565b9091555050600180546040805160c081018252828152602080820188815282840188905233606084015242608084015260a0830186905260008581526002909252929020815181559151929390929082019061049a9082610b19565b50604082015160028201906104af9082610b19565b506060820151600382810180546001600160a01b0319166001600160a01b03909316929092179091556080830151600483015560a0909201516005909101805460ff191691151591909117905580546001810182556000919091527fc2575a0e9e593c00f959f8c92f12db2869c3395a3b0502d05e2516446f71f85b01819055604051339082907fd810998a0248808a33b20218e71759cb2ec1a182b398350ad606d742587c012c90610563908890610bd9565b60405180910390a39392505050565b6105b66040518060c0016040528060008152602001606081526020016060815260200160006001600160a01b03168152602001600081526020016000151581525090565b60008281526002602052604090206005015460ff166106105760405162461bcd60e51b8152602060048201526016602482015275141c9bd91d58dd08191bd95cc81b9bdd08195e1a5cdd60521b6044820152606401610425565b600260008381526020019081526020016000206040518060c00160405290816000820154815260200160018201805461064890610a27565b80601f016020809104026020016040519081016040528092919081815260200182805461067490610a27565b80156106c15780601f10610696576101008083540402835291602001916106c1565b820191906000526020600020905b8154815290600101906020018083116106a457829003601f168201915b505050505081526020016002820180546106da90610a27565b80601f016020809104026020016040519081016040528092919081815260200182805461070690610a27565b80156107535780601f1061072857610100808354040283529160200191610753565b820191906000526020600020905b81548152906001019060200180831161073657829003601f168201915b505050918352505060038201546001600160a01b031660208201526004820154604082015260059091015460ff16151560609091015292915050565b6003818154811061079f57600080fd5b600091825260209091200154905081565b6020808252825182820181905260009190848201906040850190845b818110156107e8578351835292840192918401916001016107cc565b50909695505050505050565b60006020828403121561080657600080fd5b5035919050565b6000815180845260005b8181101561083357602081850181015186830182015201610817565b506000602082860101526020601f19601f83011685010191505092915050565b86815260c06020820152600061086c60c083018861080d565b828103604084015261087e818861080d565b6001600160a01b0396909616606084015250506080810192909252151560a0909101529392505050565b634e487b7160e01b600052604160045260246000fd5b600082601f8301126108cf57600080fd5b813567ffffffffffffffff808211156108ea576108ea6108a8565b604051601f8301601f19908116603f01168101908282118183101715610912576109126108a8565b8160405283815286602085880101111561092b57600080fd5b836020870160208301376000602085830101528094505050505092915050565b6000806040838503121561095e57600080fd5b823567ffffffffffffffff8082111561097657600080fd5b610982868387016108be565b9350602085013591508082111561099857600080fd5b506109a5858286016108be565b9150509250929050565b60208152815160208201526000602083015160c060408401526109d560e084018261080d565b90506040840151601f198483030160608501526109f2828261080d565b91505060018060a01b036060850151166080840152608084015160a084015260a0840151151560c08401528091505092915050565b600181811c90821680610a3b57607f821691505b602082108103610a5b57634e487b7160e01b600052602260045260246000fd5b50919050565b600060208284031215610a7357600080fd5b5051919050565b600060208284031215610a8c57600080fd5b81518015158114610a9c57600080fd5b9392505050565b600060018201610ac357634e487b7160e01b600052601160045260246000fd5b5060010190565b601f821115610b1457600081815260208120601f850160051c81016020861015610af15750805b601f850160051c820191505b81811015610b1057828155600101610afd565b5050505b505050565b815167ffffffffffffffff811115610b3357610b336108a8565b610b4781610b418454610a27565b84610aca565b602080601f831160018114610b7c5760008415610b645750858301515b600019600386901b1c1916600185901b178555610b10565b600085815260208120601f198616915b82811015610bab57888601518255948401946001909101908401610b8c565b5085821015610bc95787850151600019600388901b60f8161c191681555b5050505050600190811b01905550565b602081526000610a9c602083018461080d56fea26469706673582212202536eae023c26c82a0802a703caef6c490323ad32ec3724aacb47895af8bedee64736f6c63430008130033",
  "linkReferences": {},
  "deployedLinkReferences": {}
}