{
  "_format": "hh-sol-artifact-1",
  "contractName": "RoleManager",
  "sourceName": "contracts/RoleManager.sol",
  "abi": [
    {
      "inputs": [],
      "stateMutability": "nonpayable",
      "type": "constructor"
    },
    {
      "anonymous": false,
      "inputs": [
        {
          "indexed": true,
          "internalType": "bytes32",
          "name": "role",
          "type": "bytes32"
        },
        {
          "indexed": true,
          "internalType": "address",
          "name": "account",
          "type": "address"
        }
      ],
      "name": "RoleGranted",
      "type": "event"
    },
    {
      "anonymous": false,
      "inputs": [
        {
          "indexed": true,
          "internalType": "bytes32",
          "name": "role",
          "type": "bytes32"
        },
        {
          "indexed": true,
          "internalType": "address",
          "name": "account",
          "type": "address"
        }
      ],
      "name": "RoleRevoked",
      "type": "event"
    },
    {
      "inputs": [],
      "name": "ADMIN_ROLE",
      "outputs": [
        {
          "internalType": "bytes32",
          "name": "",
          "type": "bytes32"
        }
      ],
      "stateMutability": "view",
      "type": "function"
    },
    {
      "inputs": [],
      "name": "DISTRIBUTOR_ROLE",
      "outputs": [
        {
          "internalType": "bytes32",
          "name": "",
          "type": "bytes32"
        }
      ],
      "stateMutability": "view",
      "type": "function"
    },
    {
      "inputs": [],
      "name": "MANUFACTURER_ROLE",
      "outputs": [
        {
          "internalType": "bytes32",
          "name": "",
          "type": "bytes32"
        }
      ],
      "stateMutability": "view",
      "type": "function"
    },
    {
      "inputs": [],
      "name": "QUALITY_INSPECTOR_ROLE",
      "outputs": [
        {
          "internalType": "bytes32",
          "name": "",
          "type": "bytes32"
        }
      ],
      "stateMutability": "view",
      "type": "function"
    },
    {
      "inputs": [],
      "name": "RETAILER_ROLE",
      "outputs": [
        {
          "internalType": "bytes32",
          "name": "",
          "type": "bytes32"
        }
      ],
      "stateMutability": "view",
      "type": "function"
    },
    {
      "inputs": [],
      "name": "getUserCount",
      "outputs": [
        {
          "internalType": "uint256",
          "name": "",
          "type": "uint256"
        }
      ],
      "stateMutability": "view",
      "type": "function"
    },
    {
      "inputs": [
        {
          "internalType": "bytes32",
          "name": "role",
          "type": "bytes32"
        },
        {
          "internalType": "address",
          "name": "account",
          "type": "address"
        }
      ],
      "name": "grantRole",
      "outputs": [],
      "stateMutability": "nonpayable",
      "type": "function"
    },
    {
      "inputs": [
        {
          "internalType": "bytes32",
          "name": "role",
          "type": "bytes32"
        },
        {
          "internalType": "address",
          "name": "account",
          "type": "address"
        }
      ],
      "name": "hasRole",
      "outputs": [
        {
          "internalType": "bool",
          "name": "",
          "type": "bool"
        }
      ],
      "stateMutability": "view",
      "type": "function"
    },
    {
      "inputs": [
        {
          "internalType": "address",
          "name": "",
          "type": "address"
        }
      ],
      "name": "isRegistered",
      "outputs": [
        {
          "internalType": "bool",
          "name": "",
          "type": "bool"
        }
      ],
      "stateMutability": "view",
      "type": "function"
    },
    {
      "inputs": [
        {
          "internalType": "uint256",
          "name": "",
          "type": "uint256"
        }
      ],
      "name": "registeredUsers",
      "outputs": [
        {
          "internalType": "address",
          "name": "",
          "type": "address"
        }
      ],
      "stateMutability": "view",
      "type": "function"
    },
    {
      "inputs": [
        {
          "internalType": "bytes32",
          "name": "role",
          "type": "bytes32"
        },
        {
          "internalType": "address",
          "name": "account",
          "type": "address"
        }
      ],
      "name": "revokeRole",
      "outputs": [],
      "stateMutability": "nonpayable",
      "type": "function"
    }
  ],
  "bytecode": "0x608060405234801561001057600080fd5b50336000818152602081815260408083207fa49807205ce4d355092ef5a8a18f56e8913cf4a201fbe287825b095693c2177584528252808320805460ff19908116600190811790925585855292819052908320805490921681179091556002805491820181559091527f405787fa12a823e0f2b7631cc41b3ba8828b3321ca811111fa75cd3aa3bb5ace0180546001600160a01b031916909117905561056e806100bb6000396000f3fe608060405234801561001057600080fd5b50600436106100a95760003560e01c806391d148541161007157806391d1485414610176578063965288b0146101ba578063b5cb15f7146101e1578063c3c5a547146101e9578063d547741f1461020c578063f0bd87cc1461021f57600080fd5b80632115e7bf146100ae5780632f2ff15d146100e85780634e20c362146100fd5780637259e0f81461012457806375b238fc1461014f575b600080fd5b6100d57f2a5f906c256a5d799494fcd066e1f6c077689de1cdb65052a1624de4bace99bf81565b6040519081526020015b60405180910390f35b6100fb6100f63660046104d1565b610246565b005b6100d57f66108bb9ee7f804cb1c563794e51989792a366e4b648e4b2b9189d9587e1880d81565b6101376101323660046104fd565b6103af565b6040516001600160a01b0390911681526020016100df565b6100d57fa49807205ce4d355092ef5a8a18f56e8913cf4a201fbe287825b095693c2177581565b6101aa6101843660046104d1565b6001600160a01b0316600090815260208181526040808320938352929052205460ff1690565b60405190151581526020016100df565b6100d57feefb95e842a3287179d933b4460be539a1d5af11aa8b325bb45c5c8dc92de4ed81565b6002546100d5565b6101aa6101f7366004610516565b60016020526000908152604090205460ff1681565b6100fb61021a3660046104d1565b6103d9565b6100d57ffbd454f36a7e1a388bd6fc3ab10d434aa4578f811acbbcf33afb1c697486313c81565b336000908152602081815260408083207fa49807205ce4d355092ef5a8a18f56e8913cf4a201fbe287825b095693c21775845290915290205460ff166102d35760405162461bcd60e51b815260206004820152601a60248201527f4f6e6c792061646d696e2063616e206772616e7420726f6c657300000000000060448201526064015b60405180910390fd5b6001600160a01b0381166000818152602081815260408083208684528252808320805460ff19166001908117909155938352929052205460ff16610375576001600160a01b03811660008181526001602081905260408220805460ff1916821790556002805491820181559091527f405787fa12a823e0f2b7631cc41b3ba8828b3321ca811111fa75cd3aa3bb5ace0180546001600160a01b03191690911790555b6040516001600160a01b0382169083907f2ae6a113c0ed5b78a53413ffbb7679881f11145ccfba4fb92e863dfcd5a1d2f390600090a35050565b600281815481106103bf57600080fd5b6000918252602090912001546001600160a01b0316905081565b336000908152602081815260408083207fa49807205ce4d355092ef5a8a18f56e8913cf4a201fbe287825b095693c21775845290915290205460ff166104615760405162461bcd60e51b815260206004820152601b60248201527f4f6e6c792061646d696e2063616e207265766f6b6520726f6c6573000000000060448201526064016102ca565b6001600160a01b038116600081815260208181526040808320868452909152808220805460ff191690555184917f155aaafb6329a2098580462df33ec4b7441b19729b9601c5fc17ae1cf99a8a5291a35050565b80356001600160a01b03811681146104cc57600080fd5b919050565b600080604083850312156104e457600080fd5b823591506104f4602084016104b5565b90509250929050565b60006020828403121561050f57600080fd5b5035919050565b60006020828403121561052857600080fd5b610531826104b5565b939250505056fea2646970667358221220019508db6169b965ef0d80f3b7a44c669197970559dad27cc858cf73560c4d0c64736f6c63430008130033",
  "linkReferences": {},
  "deployedLinkReferences": {}
}